:020000040000FA
:1000000000000E29083083168500831285018312B3
:10001000851D07286A248316A000A100A2010A30CA
:10002000FD000030FE002108FF0000302E22831664
:10003000A3007F08A000363EA00023080318230F6A
:10004000003EA30020088312840083138316231824
:100050008317831200088316A4000A30FD000030C5
:10006000FE002108FF00220894228316A1007F08C9
:10007000A000363EA00021080318210F003EA10079
:100080002008831284008313831621188317831298
:1000900000088316A200831285100A3083126902B9
:1000A000031CB8288316A00103308316200203180E
:1000B000B528F730A100A300831285108316A5018F
:1000C000103083162502031888282108A600013065
:1000D000A6050310A30CA10C260C0318712883128B
:1000E0000511031C7528831205150130FF0000302F
:1000F000F123831205140130FF000030F123831235
:1001000005100130FF000030F1238316A50A602896
:10011000831285146430FF000030F12383128510B0
:100120008316A1011030831621020318AC28831214
:1001300005110130FF000030F12383120514013056
:10014000FF000030F123831205100130FF00003062
:10015000F1238316A10A9228831285140130FF002F
:100160000030F1238316A00A54288312E9010829DC
:100170008316A0010830831620020318E0280130FE
:100180002405A1000310A40C210C0318C928831214
:100190000511031CCD28831205150130FF00003026
:1001A000F123831205140130FF000030F123831284
:1001B00005100130FF000030F1238316A00ABA2891
:1001C0008316A00108308316200203180829013085
:1001D0002205A1000310A20C210C0318F1288312A0
:1001E0000511031CF528831205150130FF000030AE
:1001F000F123831205140130FF000030F123831234
:1002000005100130FF000030F1238316A00AE22818
:10021000831285148312E90A072808008C30FE0037
:100220000430FF00803000000000D02300000000F8
:1002300083120000A1007F08A0008E30A2000430CD
:10024000A300831200002008A4002108A500FF30AD
:10025000A007031CA103250824040319A6290430C0
:100260002207A400A501A50D2308A5072408FE0068
:100270002508FF00803000000000D02300000000AF
:1002800083120000A7007F08A6002208FE002308B2
:10029000FF00803000000000D02300000000831227
:1002A0000000A900A5007F08A400A80002302207D2
:1002B000A400A501A50D2308A5072408FE00250814
:1002C000FF00803000000000D023000000008312F7
:1002D0000000A500AB007F08AA00A4008312000064
:1002E0002608AA002708AB00FF30A607031CA703B7
:1002F0002B082A0403199F292808FE002908FF005B
:10030000803000000000BD230000000083120000C8
:10031000AA002408831203138400831383120000AD
:10032000251883172A088312031380008312000004
:10033000A80A0319A90AA40A0319A50A6E290630F6
:1003400083120000A2070318A30A2129000000005D
:100350000228080083120000C1007F0883120000F9
:10036000C40083120000C0007E08C3007D08831211
:100370000000C60083120000C20041088312000082
:10038000C50083120000430883120000C7008312D7
:100390000000440883120000C000831200004608D9
:1003A00083120000C100FF004008000000001C2470
:1003B0000000000083120000C1007F08C00083120B
:1003C0000000C80083120000410883120000C90029
:1003D00083120000C0008312000044088312000052
:1003E000C10083120000470883120000C200FF0012
:1003F0004108000000001C24000000007F08831258
:100400000000C10083120000450883120000C200F2
:1004100083120000460883120000C300FF00420858
:10042000000000001C24000000007F088312000070
:10043000C200C1074108C007400883120000C9007C
:10044000480883120000C00083120000490883128C
:100450000000C1004008FF004108080083160000AA
:10046000B9007F08B8007E08BB007D08BA000314FD
:10047000B91F0310BC01BC0D3C080319472A3809F9
:10048000BD003909BE00BD0A0319BE0A4D2A8316F4
:1004900000003808BD003908BE00831600003D0882
:1004A000B8003E08B9000314BB1F0310BD01BD0D09
:1004B0003D080319632A3A09BE003B09BF00BE0A82
:1004C0000319BF0A692A831600003A08BE003B08D8
:1004D000BF00831600003E08BA00FD003F08BB00C5
:1004E000FE003808FF0039080000000083230000E8
:1004F000000083160000B9007F08B8003D08BC0664
:100500003C0803198E2A3809BC003909BA00BC0A14
:100510000319BA0A3C08FF003A08932A8316000020
:100520003808FF003908080083120000D3007F0854
:10053000D2007E08D5007D08D4000314D31F031019
:10054000D601D60D56080319AD2A5209D700530912
:10055000D800D70A0319D80AB32A83120000520818
:10056000D7005308D800831200005708D20058085B
:10057000D3000314D51F0310031CC62A5409D70047
:100580005509D800D70A0319D80ACC2A83120000CB
:100590005408D7005508D800831200005708D4002B
:1005A000FD005808D500FE005208FF005308000067
:1005B0000000F5220000000083120000D3007F0835
:1005C000D20056080319EF2A5209D6005309D40065
:1005D000D60A0319D40A5608FF005408F42A8312D5
:1005E00000005208FF005308080083120000E100D9
:1005F0007F08E0007E08E3007D08E200E401E501F9
:100600008312000063088039031D0130E60066088C
:10061000031D212B0310E20DE30D63086102031D8E
:10062000132B6208600203181B2B031083120000B7
:10063000E30CE20C212B83120000E50A6508E400BC
:10064000002B8312000063086102031D292B62083E
:100650006002031C332B831200006208E00263086F
:10066000031C630FE102031083120000E30CE20C91
:100670006408E500E4036508031D212B6008FF0002
:1006800061080800831267088316AE0083126808A9
:100690008316AF002E08FD002F08FE007630FF0005
:1006A0000030AA218316AF007F08AE00C730AE0726
:1006B0000318AF0AAF0AAD30FD000230FE002E086D
:1006C000FF002F08F5228316AF007F08AE008312CB
:1006D000E70083162F088312E80067088316AE0030
:1006E000831268088316AF006430FD000030FE00FE
:1006F0002E08FF002F08F5228316AF007F08AE00FA
:10070000FF002F08080083120000CB007F08CA00FA
:100710007E08CD007D08CC00CE01CF011030D00086
:10072000831200004B088039031D0130D1000310F3
:10073000CA0DCB0D0310CE0DCF0D5108031D4E1465
:100740004D084F02031DA62B4C084E02031CB12B73
:10075000831200004C08CE024D08031C4D0FCF023F
:100760004A14831200005003D100D0005108031D29
:10077000902B4A08FF004B080800003A0319C42BCD
:10078000803A0319CB2B00347E08840083137F1832
:100790008317000808007F088A007E08820008008E
:1007A000003A0319D82B803A0319E22BFF010034D9
:1007B0007E08840083137F1883170008FF00840AD3
:1007C0000008080000000000CB23FD00FE0FFF031F
:1007D000FF0A00000000CB23FC007D08FF007C081E
:1007E00008008316B1007F08B000B201B301831680
:1007F00031083302031DFE2B3008320203181B2C74
:10080000FB308316B4000430B500FF308316340784
:10081000B600FF30B70035080318350FB7073608A4
:10082000B4003708B50037083604031D052CB20A9A
:100830000319B30AF72B080083120000D9007F08C0
:10084000DA00DB01DC01DD010830831200005D020B
:100850000318412C0310DB0DDC0DD91F382C0030A0
:10086000DF005A08DE00DB075F0803185F0FDC07B4
:10087000831200005908DE0003105E0DD900DD0A66
:10088000242C831200005B08FF005C08080083161C
:10089000A700A8010A30831628020318682C28082C
:1008A0002C3EA90000300318013EAA00290883123B
:1008B0008400831383162A18831783120008831673
:1008C0002706031D652C0130692C8316A80A4A2CC3
:1008D0000030080042238316AC007F08AB00AD0057
:1008E00047248316AB002B08031D6A2C831269086A
:1008F0002C3E8316AB0000300318013EAC002B08E1
:1009000083128400831383162C1883172D088312F7
:10091000800083162D08080004340034B0340434F9
:100920006734003402340034B2340434693400349F
:1009300001340034A6340434363400340A3400342C
:10094000B33404346A34003401340034FC34603489
:10095000DA34F2346634B634BE34E034FE34F7347C
:080960000034023400340034BD
:00000001FF
